:100000006F20700300000000F2010000F401000006
:1000100000000000000000000000000000000000E0
:1000200000000000000000000000000000000000D0
:100030003428000000000000342800000000000008
:100040003428000034280000342800003428000040
:10005000100A000034280000342800003428000072
:100060003428000034280000342800003428000020
:100070003428000034280000342800003428000010
:100080003428000034280000342800002E0B000023
:10009000342800003428000034280000000000004C
:1000A000511126C022C206C4828282441244A24058
:1000B000310182802A86014593F6150091C232955E
:1000C00085810606F5F9828000000000634E050276
:1000D00063C305042E86AA857D5515C285466378BF
:1000E000B6006356C00006068606E36CB6FE014500
:1000F00063E4C500918D558D85820582F5FA828075
:100100008682C93F2E8582823305A04063D70500D1
:10011000B305B040C1B7B305B0408682653F330533
:10012000A0408282868263C70500634905005D376F
:100130002E858282B305B040E35B05FE3305A04007
:10014000513F3305B040828200003D432A876373EC
:10015000C3029377F700BDEFADE5937606FF3D8AC6
:10016000BA960CC34CC30CC74CC74107E36BD7FE10
:1001700011E28280B306C3408A0697020000969679
:100180006780A6002307B700A306B7002306B700C1
:10019000A305B7002305B700A304B7002304B700E5
:1001A000A303B7002303B700A302B7002302B700DD
:1001B000A301B7002301B700A300B7002300B700D5
:1001C000828093F5F50F93968500D58D9396050162
:1001D000D58D61B793962700970200009696868288
:1001E000E78086FA9680C1171D8F3E96E374C3F8A8
:1001F000A5B701A001A0EFF2BFEA1301C1FD894735
:100200007C843715014091473EC82C008D4713056B
:1002100005403EC623150100EF20807493070008B7
:100220002C00371501407C84EF20807385450545FF
:1002300002CA02CC02CE02D0EF20D02A85450D455D
:10024000EF20E07A894705443ECA4808B1473ECED0
:1002500022D002CCEF20206AD14702C00A855C8000
:10026000408122C2EF20B015130141023DBD13872A
:1002700021830823938741831375F50F630C0518B9
:10028000230007001307E5FD9376F70F1306A00B75
:1002900001476367D6000D671307470B369718238E
:1002A0009423998A99C21377F70D93068007630EFA
:1002B000D51463E0A60C930620056302D51E63E007
:1002C000A606930660036300D51263EFA602B94643
:1002D0006305D50E9306E002630CD518930620073C
:1002E000630FD52063E5A61C9306A0046303D526FF
:1002F00063EBA6189306A0026304D522930620039D
:100300006302D5243A8539A29306E0036309D53206
:100310009306E004E314D5FC13052003E5A8930637
:100320004006630CD51063E2A6029306E005630B5A
:10033000D51093062006E313D5FA982313058002FF
:10034000198B69EB13059003F1A09306C006630CAB
:10035000D510930640076302D51093068006E31F6D
:10036000D5F6982313051002198B4DE713051003DA
:1003700055A09306400A630AD50C63E3A6049306CE
:100380006009E305D5FE63EDA6009306C00763048C
:10039000D50E9306E008E313D5F41307E0029DB7EA
:1003A0009306E0096300D52A9306200AE318D5F2E4
:1003B000982313059002198B31EF1305000399A8B8
:1003C0009306E00BE300D5F863E2A6029306E00A89
:1003D0006308D50A9306C00BE312D5F098231305E2
:1003E0006002198B05EB130570032DA09306600DB9
:1003F0006302D5069306E00D6308D5109306E00C62
:10040000E31ED5EC1305500331A098231305000417
:10041000198B19D39C23858B63890722930745FD8C
:1004200093F7F70F1307E0046361F7220D678A075C
:10043000130707F6BA979C43828798231305300267
:10044000198B69FB13053003F1B79823130540029C
:10045000198B69F31305400375BF982313055002E8
:10046000198B4DFB45B798231305E005198B5DF3F8
:100470001305600345B798231305A002198B59FB98
:100480001305800341BF9306A005630FD50E9306A5
:100490006006630DD50E93062005E315D5E6982377
:1004A0001305F003198B3DF71305F002A5B793066A
:1004B000A00A630ED50463E6A60293062009630C26
:1004C000D50A930640096305D50C93062008E31B63
:1004D000D5E298231305C003198B0DFF1305C00245
:1004E00015BF9306A00B630FD5069306A00D6302FC
:1004F000D5049306000BE317D5E0254521BF9823CB
:100500001305F005198B19F71305D00221B79823AD
:100510001305B002198BE31F07EE1305D003DDBDF1
:1005200098231305B007198BE31607EE1305B005E2
:10053000D5B598231305D007198BE31D07EC1305D8
:10054000D005C9BD88231989133515001305A503E6
:10055000D1B5982313052002198BE31D07EA130573
:1005600070024DBD98231305C007198BE31407EAE9
:100570001305C00545B598231305E003198BE31B4C
:1005800007E81305E00279B5294569B5214559B554
:100590001305000241B51305000A82801305100AF5
:1005A00082801305200A82801305300A8280130599
:1005B000400A82801305500A82801305600A8280F7
:1005C0001305700A82801305800A82801305900A41
:1005D00082801305A00A82801305B00A8280130569
:1005E000C00A82801305D00A82801305E00A828047
:1005F0001305F00A82801305000B82801305100B8F
:1006000082801305200B82801305300B8280130536
:10061000400B82801305500B82801305600B828093
:100620001305700B82801305800B82801305900BDD
:1006300082801305A00B82801305B00B8280130506
:10064000A002C9BB1305B002F1B38280EFF25FA52F
:1006500083D661D593878183B697942371111387CD
:1006600061D593F6F60F13848183938781CE8C43F3
:100670001E2313952501A2976353050294A336C048
:10068000FD36AA840545EF20F0098246138761D51F
:10069000E9DC1E2326853E9414A0110139B493058C
:1006A00000068CA3E9BFA947630FF502B147630DAC
:1006B000F500A547938661D56314F5089E228D83C6
:1006C00085078E079EA23DA08147138781839306ED
:1006D00000323306F700230006008507E39BD7FEB0
:1006E000239B01D48280138761D51E2395838507C0
:1006F00096071EA383D661D51307F031138661D503
:100700006370D716814693878183930500301387E2
:1007100006023E9718233385D70085061377F70F17
:1007200018A1E396B6FE13070032B385D7002380E5
:1007300005008506E39BE6FE930700301EA282803B
:10074000130605FE1376F60F1317860161879E22A6
:10075000634A0700138717009AA213878183BA9709
:1007600090A349BF130705061377F70F6D46636D16
:10077000E60C130505F6131735000D65130505572F
:100780003A9503430500611122C226C08145814488
:10079000138781839302F0319303003013040032F6
:1007A00063CD650491C09EA283D661D51307F03155
:1007B000138661D5637FD702814693878183930532
:1007C0000030138706023E9718233385D70085062D
:1007D0001377F70F18A1E396B6FE13070032B3851F
:1007E000D700238005008506E39BE6FE93070030D3
:1007F0001EA2124482442101828004311386170014
:100800004206811493F4F40FBA97418284A363F8EB
:10081000C2028147138607023A961022B304F700FA
:1008200085071376F60F90A0E39677FE3306F70060
:10083000230006008507E39B87FE1306003085052D
:1008400005058544B287A9BF2147E305E5EA13877B
:1008500017009AA213878183BA97394798A359BD85
:100860008280EFF2FF832A840305040019E16FF010
:10087000DF831375F50F05043D35FDB7EFF25F8299
:100880002A840305040009E52945313D6FF0FF8105
:100890001375F50F0504013DEDB7EFF27F803111BF
:1008A0002DC1AA84814763550500B304A040854744
:1008B00001443EC25C0833878700A94526853AC0BB
:1008C000EFF05F86024713650503A945230AA7FEDB
:1008D0002685EFF0AFFF0504AA841374F40F924746
:1008E00069F91305D00281EF01E451016FF0EFFBCC
:1008F0007D141374F40F5C08A29703C547FF65339A
:10090000E5B7130500034533CDB7EFF26FF92A843D
:100910002945513B1305C004793303C551D5B53F73
:100920001305000249330305040019E52945A53BD9
:10093000A38A01826FF06FF705041375F50FDDB719
:10094000EFF20FF61301C1FC2A842EC2B284814556
:100950001306C002280036C0EFF02FFF854505457D
:10096000EF206036924782462C003EC4C1473EC805
:10097000930700083ECE930700023ED422858D6780
:1009800026C636CA3ED602CC02D002D202D8EF101A
:100990001073130141036FF04FF1EFF26FF051113B
:1009A00085451305000302C002C202C4EF20803354
:1009B00037140140930780043EC48A8593070006DC
:1009C000130504407C80EF10B07985451145EF2078
:1009D000603199478A85130504807C80EF10507838
:1009E0008D473EC2E1473EC48A859307000537150F
:1009F00001407C80EF10D076C1473EC48A85A54770
:100A0000371501407C80EF10B07531016FF0EFE9D0
:100A1000B715014083A78540898BC1EB83C731831C
:100A200013863183D9E39387F1829823138301835B
:100A300005071377F70F98A3835703008C45138599
:100A4000F1828607C207C1832310F30093F50508DE
:100A50009386018381C593E717009EA2930757FFF2
:100A600093B717001CA2AD476311F7049A220983BC
:100A70001377F70F3D439387418393852183631F4A
:100A8000670298231367870098A398212390060094
:100A900023000500230006009306C0086397E600C4
:100AA0009C23858B99C3A38A0182B707014009471C
:100AB00023AAE74093870740730020301303800484
:100AC000631D67009823218B09C798231377570F5D
:100AD00065BF98231367270045BF1303A009631D53
:100AE00067009823218B09C798231377370F69BFB5
:100AF00098231367470049BF13038002631D6700F3
:100B00009823218B09C798231377670FB5BF9823C4
:100B10001367170095BF03C30700137383006306B1
:100B2000030098231377770F85B798A1B9BF37359E
:100B3000014061118545130505C022C226C0EF2082
:100B4000403585476316F50C83D761D81307F01835
:100B5000938661D8636AF70C13F7170059E313867D
:100B600021D812229305F031138721D863F4C500F0
:100B7000231007001223938541D84206418292A197
:100B80009395670093F505381385A1D88D63B70257
:100B900000200EA1138341D881451386A1D89380EC
:100BA00081839383031793828203130400020A2232
:100BB000835403001E95AE948694842026950421C8
:100BC0003385B200850504A1E39385FE12229305C7
:100BD000F03763F8C500122313060602420641826D
:100BE00012A38507C207C1831307C0206361F706FC
:100BF0009EA29E221307C01C639EE704B717014004
:100C00003707080098CB938781CE9843050798C390
:100C1000373501408545130505C0EF2000291244F2
:100C2000824421017300203013070019E39BE7FA87
:100C3000370600200147130686039305000233059B
:100C4000E600230005000507E31BB7FE59BF23900C
:100C5000060045B71307E01CE397E7FAB717014012
:100C600021474DB7EFF2CFC3130181FC85450565E0
:100C700002D202D402D602D8231A0102EF20800643
:100C8000F1772312F102B707000285073ED64C1018
:100C9000A14737350140373401403ED802D4EF2018
:100CA00020081E200546894593E707101EA01E2038
:100CB0003735014093E747001EA0EF20200B854504
:100CC00037350140EF20E0080565854513050580AF
:100CD00002C002C202C402C62318010002CA02CC2A
:100CE00002CE02D0EF2000009307F05D2C00130528
:100CF00004C03EC602C4EF208008130504C0854529
:100D0000EF20A01A9145130504C0EF20001A9307A5
:100D100030127C8085475C810A8585473EC2EF1092
:100D2000106A0546130504C08545EF206012C167AF
:100D3000938707063ECA9307400BFC854C088947FA
:100D4000130504C0FC86EF206008130504C0854528
:100D5000EF20A00E130504C08145EF202012854529
:100D6000130504C0EF20E00F130181036FF0EFB310
:100D7000B7170240D843C1769386F67F758FD8C3E4
:100D8000984F37160140B706F1FF1367072098CF39
:100D900003270640FD16758F2320E640D847B70687
:100DA00020FFFD1613670720D8C7D8471377F7DF52
:100DB000D8C7B727014023A6074223A807421D47EB
:100DC00023AAE74203A70741758F23A8E74003A79B
:100DD0000741B706E000558F23A8E74003A78740E7
:100DE000B7060E008506558F23A4E74003A787406A
:100DF000B72601401367870023A4E74003A7864076
:100E0000218B6DFF03A786401367470023A4E640AC
:100E10003727014083278740918BEDFF8280EFF2D7
:100E20002FA81111AA842E844545854502C002C20F
:100E300002C402C602C802CA02CCEF10B06A8545DD
:100E400037052000EF10F06B91477C80F1473EC4DE
:100E50008A858D47371501403EC2EF1070308947B3
:100E60008A85371501407C80EF10902FB70700402E
:100E70003EC8E0829307004037540040FC836C007A
:100E8000916713050440FC8426C6EF107038854531
:100E900013050440EF10F04571016FF00FA1EFF260
:100EA0002FA0375400407111AA84930704403E8557
:100EB000B7050200EF10904DB757004093870740E9
:100EC0007DF513050440854537040300EF10F0431A
:100ED0000504B757004013850740A285EF10B049BD
:100EE000B75700407DD5138507400146A685EF1012
:100EF0007047138781CE1843138481CEB70707004C
:100F000093872708B7540040BE85138504403AC034
:100F1000EF107046B707070093872708024701C9FB
:100F2000138504408545EF10F03F054521A8144086
:100F300013064706E378D6FC138504408545EF1079
:100F4000703E014511016FF04F96EFF26F95B75467
:100F500000402A84938704403E85B7050200EF10C5
:100F6000F042B7570040938707407DF51385044052
:100F70008545B7040300EF1050398504B75700408A
:100F800013850740A685EF10103FB75700407DD569
:100F900083C541D5014613850740BD8993E5050A00
:100FA000B7040700EF10103C93842408B7570040A3
:100FB00013850740A685EF10103CB75700407DD53C
:100FC00083C581D813573400138507409205D98D06
:100FD00093F5F50FB7040700EF1010389384440819
:100FE000B757004013850740A685EF10D038B75794
:100FF00000407DD59315540093F5050E13850740E9
:10100000EF1090356FF06F8AEFF28F893D3F9304B8
:101010000002138401D6B707070093874708B75625
:101020000040BE8513850640EF10F034B707070077
:10103000B7560040938747087DD11387C1D51C233D
:1010400013850640FD1413861700A2978C2310A366
:10105000EF109030E9F03704070013044408B75448
:101060000040A28513850440EF10F0306DD985450E
:1010700013850440EF10102B6FF02F83EFF24F8297
:1010800037040700D93513044408B7540040A2853B
:1010900013850440EF10302E6DD91385044085452B
:1010A00037540040EF10102893040440B7050200A5
:1010B0002685EF10B02D7DF91305044085453704D2
:1010C0000300EF1090240504B7540040A285138557
:1010D0000440EF10502A6DD983C541D505461385CC
:1010E0000440BD8993E5050A37040300EF109027FB
:1010F0000904B7540040A28513850440EF10B027BF
:101100006DD9138504408545EF1070230144938405
:1011100001D6B70703009387070437570040BE8501
:1011200013050740EF103025B7070300375700407D
:10113000938707047DD113050740EF103022B38752
:10114000840088A3FD476307F4009307F00F0504AC
:10115000E311F5FC37550040854513050540EF10B8
:10116000701C6FE09FF4EFE2BFF3AA841375F50FD4
:10117000313703C701D69307F00F01456306F70423
:10118000A547138401D663EB970013050002EFF027
:101190008FD113050002EFF00FD129A0930730067D
:1011A000E3F997FE2685EFF04FEF13050002EFF00D
:1011B0008FCF05040345F4FF9307F00FE319F5FE05
:1011C0002945EFF04FCE05456FE03FEE03C7C1D58F
:1011D00081459387C1D5938601D6130500023383D9
:1011E000E60003430300130617001376F60F6305AA
:1011F000A30091C198A3828032878545CDB793869D
:10120000C1D59C2281451387C1D5850793F7F70F78
:101210009CA2938601D6130500023383F600034394
:101220000300138617001376F60F6305A30091C120
:101230001CA38280B2878545CDB783C7C1D51386ED
:1012400001D63E96102223AC01D4130320069385C9
:1012500081D59386C1D5138701D6631C66048507A3
:1012600093F7F70F3306F700034306009CA285436C
:10127000130303FD1373F30F0146854263F4630008
:10128000014582803303F700034303008507060608
:101290001373130093F7F70F1A963303F700034302
:1012A0000300130303FD1373F30FE3FD62FC90C10E
:1012B00099A0130606FD1376F60F2543E362C3FCDF
:1012C00081423306F70083430600139622001696E8
:1012D0008507060693F3F30093F7F70FB382C30075
:1012E0003306F7001022130606FD1376F60FE37A95
:1012F000C3FC23A055009CA2138581D582809386D0
:10130000C1D59C22138601D63307F6001823930516
:1013100000046310B70AEFE2BFD8138717001377F2
:10132000F70F98A232970823E5451307F5FB1373CF
:10133000F70F63ED6502131627001387C1CE3297AE
:10134000084389079CA29307300663E9A700931717
:101350002500138581B53E956FE03FD537450000E8
:1013600013058581EFF06FDA0145FDB7130705FD21
:101370001377F70FA54563E9E50213872700137775
:10138000F70F3A96102298A23D89130706FD1377AE
:10139000F70FE3EEE5FA131725003A9506053D8AA7
:1013A0008D0732959CA265B73745000013058582ED
:1013B00055BF1306F7FB1376F60FE545014563EBC2
:1013C000C5000A0785071307C7EF1385C1CE9CA286
:1013D0003A9582808280EFE2BFCC153711E1B13DB2
:1013E0006FE0BFCCEFE2DFCB7111F537AA8735C9CB
:1013F0000041938401D6D93B83C7C1D51307F002BE
:10140000A6979C23638BE7001307A0026385E7027E
:1014100023AC81D4938781D5A9A005473AC0C533B1
:101420005D3F05C902470C410DC381C92285EFE02C
:10143000FFC92A8409A80147D5B73735000013052D
:10144000857FEFF08FCC593345BF2285EFE09FC6F3
:10145000CDB72AC03745000013054580EFF00FC215
:1014600082473E8511016FE05FC4EFE27FC383C70F
:10147000C1D5138701D63E97102361119385C1D53D
:10148000938601D61307D0022EC036C2814463165C
:10149000E60085079CA18544153B824712479C23A3
:1014A0003E9714231307B0026396E60002478507B0
:1014B0001CA3293B053FAA8721CD004199C03304D5
:1014C00080402933824712479306D0029C23BA9763
:1014D0009C23638BD7009306B002638FD70023ACA5
:1014E00081D4938781D52DA08544113BE53D09C961
:1014F0001C4189C41D8CF1B78144C5BF3E94D1B74E
:101500002AC03745000013054580EFF02FB782470A
:101510003E8521016FE07FB9EFE29FB89384C1D58A
:101520009C20138701D6BA979C23130181FD9386D3
:1015300001D61307E00A36C01384C1D5638CE76A6D
:10154000636EF70C1307700A6381E738636FF70661
:101550001307300A638FE738636FF7001307000A39
:101560006385E73A1307100A6382E75237350000B4
:101570001305457E0DAE1307500A638FE728637489
:10158000F74483C751D5138451D5850793F7F70FD7
:101590001397870161876345073203C7C1D89D450B
:1015A0001386C1D863E7E51E938601D9BA9605076D
:1015B0009CA218A2A931553D6303052E1C411307B7
:1015C000F007636FF72E1CA0E9A21307A00A638837
:1015D000E7226363F7021307800A638BE71E130792
:1015E000900AE395E7F8213989396308051A08411B
:1015F0001375F5078D3E71AA1307C00A6382E75E73
:101600006377F720ED3E9535630B05281C411307E2
:10161000F0316360F718239BF1D4A5AA1307500B90
:101620006389E716636BF70C1307100B6382E77887
:101630006363F7021307F00A6387E76E1307000B73
:10164000E396E7F26D3E65392A8463060526EFE0EE
:101650001FC208C03DAA1307300B638BE77C637D74
:10166000F776713E1935630D057E0041EFF01FB628
:101670009C20138701D6BA9798239307C002631A58
:10168000F762B53EDD33AA846307057C8567930660
:10169000C4F99387C7F363EED70E1441E1679387CC
:1016A000C768B11663E7D70E37A50700A2851305F3
:1016B0000512EFE0BFA12A8401479C40A2853AC0F1
:1016C000139557001D8D0A053E950A05EFE01FA0F2
:1016D00002476350A70C3AC0B7170140854694CB28
:1016E0002285EF109000C166B717014094CB228588
:1016F000EF10A07F02470507C9B71307900BE387D8
:10170000E730636EF7061307700BE387E718E37D96
:10171000F714EFF0DFAE913BAA84E30E0524EFF05F
:10172000FFAA02471C20BA9798239307C0026312AE
:10173000F758EFF0DFACC1473ED2854702473ED0B5
:101740001C2002CEBA979C2313071003E39BE722C9
:1017500093070004FC86B71701406C081385074007
:10176000EF1000209840B71701409305000413853F
:101770000740E3040728EF1000276F0070181307D5
:10178000B00B6384E76EE3E0E7361307F00FE39FE7
:10179000E7DC130181026FE05F9101448147B734B8
:1017A000000022853EC0EFF01F9C824711C18507D3
:1017B0003D476399E70013850465EFF02F8CEFE058
:1017C000FFE88147050413070008E31CE4FCD1B7D8
:1017D000FD57138701D61CA38144268523000400EE
:1017E000EFF09F822945EF10E073850493F4F40F26
:1017F00093070008E393F4FEA38A018259BF0547CB
:10180000A38AE182A38A01D4238601D859B7A38A87
:101810000182A38A01D4B5BFEFF07F9E1C2002474E
:10182000BA979C233EC2EFF09FADAA8449C5EFF062
:10183000FF9902471C20BA9798239307D003631798
:10184000F706EFF0DF9B153139C91C4112479CC0E8
:1018500093070004E31FF7F2EFF05F9702471C20A5
:10186000BA9798239307C0026314F700EFF03F99EB
:101870009104EFF09F9C09C9938781B59387076412
:1018800063F4F4001C419CC0EFF05F9402471C20FD
:10189000BA9798239307C002E302F7FCDDBD373502
:1018A000000013054566EFF04F86E5B537350000BB
:1018B00013054567CDBF3735000013050568E5B74B
:1018C0003735000013054569F9BF1387C1D81C23BC
:1018D00081CFFD1793F7F70F1CA3138701D9BA9790
:1018E0009823A38AE1D475B5373500001305856ABE
:1018F0005DBFEFF0DF90953E5DD11C411307F0070F
:10190000E360F7FCA38AF1D469B5EFF05F8F93042D
:10191000C0021C200247BA979C2363949700EFF003
:101920001F8EEFF09FB409CD0841EFE01FF7EFF0F5
:10193000FF891C200247BA979C23E38C97FC91BD3A
:101940001C2002473E97142313072002E391E6FE72
:1019500085071CA01C2002473E970823130720027E
:10196000E30CE5241307F00FE303E5FC7D47E36098
:10197000F7FC1307C0056314E5040247850793F7D6
:10198000F70F1CA0BA9798239307E0066315F7009A
:101990002945EFE05FD102471C20BA9798239307AF
:1019A00040076315F7002545EFE0FFCF02471C20F5
:1019B000BA979823930760066315F7003145EFE067
:1019C0009FCE1C2071B7EFF09F8302471C20BA976F
:1019D00098239307C0026314F700EFF05F8204209E
:1019E000EFF0FF9141C5B73700002AC21385476B5E
:1019F000EFE03FE78247BE948820EFE0DFCA37354B
:101A000000001305C56BEFE07FE7124705468545EB
:101A1000232007003AC632C42EC2EFE03FC3AA8497
:101A2000EFE07FC8224692453247A54609C6930794
:101A3000D0026388F404938704FD93F7F70F63EBF8
:101A4000F600084393172500AA97860713F5F400BC
:101A5000AA971CC3938404FD93F4F40FE3FC96FA55
:101A600008433AC2EFE00FE5124708C3EFF00FF664
:101A700002471C20BA9798239307C002E307F7F4A4
:101A800009BB0146FD5593040003E9B7EFF02FF7BA
:101A9000EFF0BF9D630105140441EFF02FF3182010
:101AA0008247BA9794239307D003639DF6020507F4
:101AB00018A085473EC2EFF06FF1EFF01F9B630760
:101AC00005109247638F070EF91793F7F70F9546A6
:101AD000184163E3F6088D668A079386C609B697B0
:101AE0009C4382871306C0036399C602EFF02FF16F
:101AF00018208247BA9794239307D0036396F60081
:101B0000050718A08D477DB71306E0038947E393C7
:101B1000C6FA050718A0914771BF9307E0036394C5
:101B2000F602EFF0CFED182082471306C003BA97F4
:101B300094239307D0036396F600050718A09947EE
:101B400095BF9547E9B7130660028147E394C6F64F
:101B5000050718A09D47B9BF998C93B41400EFF006
:101B6000EFE602471C20BA9798239307200A6315D3
:101B7000F704EFF0CFE89DC4453221B9B3A4E400E7
:101B8000F9BFB324970093C41400D1BF998CB33428
:101B90009000F1B7B3249700D9B7B3A4E400E5B738
:101BA000F98CF5B7938751D598239306E007E3E5C1
:101BB000E6C4050798A3F1BE373500001305056C90
:101BC000DDB1373500001305856CF1B937350000FC
:101BD0001305856DC9B9373500001305456EE1B1B0
:101BE000EFF0EFE1EFF0AFF1E30705CC83A781CE93
:101BF0001CC145B6EFF0AFE002471C20BA979C230A
:101C00001307E0026385E7081307E0056383E7082D
:101C10001307C0036382E7081307E0036381E70843
:101C200013076007638FE706130700076396E70E45
:101C30001307703E3AC2EFF08FDCEFF01F8361C9EB
:101C400012479307703E0441631AF706EFF00FD86E
:101C500002471C20BA9798239307C002631BF7041E
:101C6000EFF0EFD9EFF07F8021C118419307F031F9
:101C7000E3E1E7B2811493F4F40F93978401E187D1
:101C8000E3C907B093878183BA9784A319B6014744
:101C900055B71307003079BF1307F03161BF05470F
:101CA00051BF1307000279B7373500001305056FE0
:101CB000DDBE373500001305C56FF5B6811493F40A
:101CC000F40F93978401E187E3C507AC938561D551
:101CD000962193878183B69784A3B387E600C207D2
:101CE0000545C183138661D56306A7001305F0314E
:101CF0006318A70013F7063EFD8BD98F1EA251BCB7
:101D00006364F5009EA171B4938707CEE5BF3735B4
:101D100000001305857041BEEFF02FF56DD9082145
:101D2000EFE07F98BDB4EFF08FCD024783D461D54B
:101D30001C20BA97982393070007631CF702EFF063
:101D40000FCCEFF08FF239C904419307F03163F4FF
:101D500097009304703EEFF06FC702471C20C20447
:101D6000C180BA9798239307C0026312F702EFF07D
:101D70000FC99307F03163E89702EFF04FD805C51C
:101D800093878183BE949C209387070295B537354E
:101D900000001305C56FEFE05FB7E1BF3735000006
:101DA0001305056FCDBF3735000013058571E5BC00
:101DB000EFF0EFC4EFF06FEB138481D809C51C413D
:101DC000BD8B6FF05F802945EFE0FF8D08203D89D6
:101DD000EFE0BFAC2945A9B7EFF06FC21C20138715
:101DE00001D63E97182393066006938441D5631766
:101DF000D702982093168701E1861367270063C5F1
:101E000006022945EFE03F8A9C2013056006898B76
:101E100099E313058006EFE01F896DBF93068006E6
:101E2000E311D7FE9820419B98A085076FF0AFF98A
:101E3000EFF0EFBCEFF06FE3E30305A60841B7470F
:101E40000F009387F7231307F5FFE3E4E794EF1000
:101E5000600D6FF01F943735000013054572A1B473
:101E600037350000130505733DBCA38A0182A38AA0
:101E700001D4EFF0CFB81C200247BA978423930710
:101E80003007639CF410EFF08FB7EFF00FBB6300E7
:101E900005100441EFF08FB302471C20BA97982336
:101EA0009307C002E317F7E0EFF06FB5EFF0EFB87C
:101EB00069C9144136C2EFF06FB102471C20924647
:101EC000BA9798239307C002E315F7DE36C0EFF008
:101ED0000FB3EFF08FB645C11307F00763479708BC
:101EE00082466344D7081C411306E0079385F7FF39
:101EF000636DB606638BD40663DC9604B385F40089
:101F000005466355B70093070008858F33879640D1
:101F10003AC093F6F40F368532C63EC436C2EFF0AF
:101F2000EF951545EF10000082479246230004000C
:101F30003385F6001375F50FEFF00F8D2945EF008F
:101F4000707EA2473246FD17B294E1F76FF07F84AE
:101F50003386F6006355C70093070008958F1387F3
:101F6000F7FFBA94BA967D5655B73735000013057A
:101F7000C5736FF05F9337350000130585746FF0FC
:101F80009F9237350000130585756FF0DF91373567
:101F90000000130585766FF01F919387A4F993F7DE
:101FA000D70FCDEFEFF0AFA5038741D5938741D58C
:101FB0003EC0634C0700930760066398F400373512
:101FC0000000130585776FF01F8EEFF00FA749C152
:101FD0001C410247BD8B3EC603C681D8938781D87A
:101FE00014233EC21307800689476393E4008147A8
:101FF0003EC481473E8536CC32CA3EC8EFF00F88DA
:102000001545EF003072924732472300040098A331
:102010002247824798A3C2473E85EFE0FFFE29454D
:10202000EF00507092475246E2461307000890A313
:10203000824794A3C247850793F7F70FE39CE7FA1B
:102040003735000013054578EFE05F832685C9B971
:1020500037350000130545796FF0FF8437350000F0
:102060001305457A6FF03F84EFF06F99EFF02FA9D9
:10207000E3030584B727014003A78740B706400064
:10208000558F23A4E7403727014083270740898BDA
:10209000EDDF8327C744A9BEEFF06F96EFF02FA6C0
:1020A000AA8471C9EFF08F921C20138701D6BA97CA
:1020B00098239307C002E31EF7BEEFF04F949307F7
:1020C00080043ED21C20138701D6BA979C2302CEEF
:1020D00002D0130710036397E70293070004FC86FE
:1020E000B71701406C0813850740EF007007930590
:1020F0000004B717014013850740EF00300E88C079
:102100001C2025B313072003639FE70093070002F9
:10211000FC86B71701406C0813850740EF00500498
:1021200093050002F9B7130730036391E70289476B
:10213000FC86B71701406C0813850780EF0050023A
:102140008945B71701401385078045BF1307400332
:10215000639DE7009147FC86B71701406C08138523
:102160000780EF00E07F9145E9BF37350000130598
:10217000457B6FF04FF3373500001305457C6FF05A
:102180008FF2130720036393E70293070002FC8694
:10219000B71701406C0813850740EF00607C98403A
:1021A000B7170140930500026FF06FDC130730038F
:1021B0006393E7028947FC86B71701406C081385D3
:1021C0000780EF00E0799840B717014089451385F3
:1021D00007806FF00FDA130740036393E70291471C
:1021E000FC86B71701406C0813850780EF00407725
:1021F0009840B71701409145D9BFEF00007F09B75C
:10220000373500001305457D6FF0EFE9EFE03FFF44
:10221000EFF0AFA52A84E30C05AE83C741D593F751
:102220000704638807D6B7540040938704403E856F
:10223000B7050200EF009015B7570040938707409D
:102240007DF5138504408545B7040300EF00F00BCE
:102250008504B757004013850740A685EF00B011ED
:10226000B75700407DD5014693050004138507400C
:10227000B7040700EF00100F93842408B7570040FD
:1022800013850740A685EF00100FB75700407DD596
:102290000C2013850740B7040700EF00F00B938470
:1022A0004408B757004013850740A685EF00B00CDF
:1022B000B75700407DD50C30138507403704070021
:1022C000EF00900913044408B7540040A285138519
:1022D0000440EF00500A6DD9854513850440EF0096
:1022E00070046FF00FCBEFE09FF1EFF04F812AC049
:1022F000630305DC83C741D593F70704638B07C8E5
:102300003754004093040440B70502002685EF00CF
:10231000F0077DF913050440854537040300EF00FD
:10232000C07E0504B7540040A28513850440EF0029
:1023300090046DD9054693050004138504403704C5
:102340000300EF003002090437550040A285130551
:102350000540EF0050026DD9370403001304040454
:10236000B7540040A28513850440EF00D0006DD91A
:1023700013850440EF00807E370703002A8413078B
:102380000704B7540040BA8513850440EF00A07ECF
:10239000B7070300138707046DD513850440EF00CA
:1023A000E07B2205498C854513850440EF0080774A
:1023B000824780C36FF0EFBD85071CA06FF02FD759
:1023C000EFD21FCE61110921EF00F02EEFE0EFDC1C
:1023D000EFE05F89B7340140370402403706002040
:1023E0009306F002130686039385C40013050403C5
:1023F000EFE00FD583D704C093E717002390F4C014
:10240000411116C693028003FD12E39F02FEB24201
:1024100041011C5893E717001CD8EFD0DFDDEFE037
:102420003F953745000013058583EFE02FC56165B3
:10243000938701D67D57930500021305056A238013
:10244000E702EFE0DF9D1305200AEFE05FA593842C
:1024500001D671E53745000013058584EFE06FC0B4
:1024600013050004EFE0BFA371E137450000130539
:102470004585EFE00FBF3745000013054586EFE0C7
:10248000EFBF7177B75700401507239EE74001451E
:10249000EFE0DFBE98209307A00A1384C1D563182C
:1024A000F70085471CA01307A0052389E182EFE010
:1024B000EF992AC003070100A5471420631FF70600
:1024C000E94763EAD700374500001305C5863AC2DD
:1024D000EFE02FB912471C20FD46E3EAF6FCA546C3
:1024E000631CD71E6947E364F7FC93060002338739
:1024F000F40014A3138717001377F70F269714A37C
:10250000138727001377F70F269714A31387470025
:102510008D0793F7F70FA69718A094A349BF938749
:1025200041D59823136707F898A31DBF938741D51A
:1025300098231367070498A33DBFFD4763E6D700C0
:102540003AC2EFE04F961247A9461C206310D710FD
:102550007D57A69798A3A38A01D423000400EFE037
:10256000FFC6EFE09FCD938751D53EC005C92AC075
:10257000EFE0DFC502459307F007084163E9A700D4
:102580001375F50FEFE05FA8230004000DB7374582
:10259000000013054587EFE04FB7FDB782479C2346
:1025A0003EC2EFE07FF7EFE07FC2824712479C23F5
:1025B000639DE7001C20A69798239307B00363163A
:1025C000F700EFE0DFC3EFE03FF5EFE03FC0824709
:1025D00012479C23639DE7001C20A697982393072E
:1025E000B0036316F700EFE09FC1EFE0FFF29387BF
:1025F00051839C231387518393F7F70F91CB824725
:1026000092469C236396F6009387160082469CA20E
:102610008247882393178501E18763D207028247A7
:1026200023000700238007001C2393F7F70FBDF753
:102630003745000013058588EFE04FA4B1B7EFE000
:10264000FFA32300040013875183F9BFA146E314BD
:10265000D7E8E38E07E4FD1793F7F70F1CA0A697C2
:102660009C231307F009636FF700138761D51E23BE
:10267000FD17C207C1831EA313878183BA972380E6
:10268000070035B51307B00BE363F7E20D679387D7
:1026900007F6130707578E07BA978823814583D714
:1026A00061D50146938661D51387818305436349CC
:1026B000A60091C19EA29E223E9723000700C5BBA3
:1026C000B302F700238002006376F300FD17C20710
:1026D000C18385450506E1BF82463387F40085073F
:1026E00014A31CA0E9B3EFD2BF9B371402401C40D7
:1026F0003707FFF8414593E717001CC05C40F98F8E
:102700005CC01C403707F7FE7D17F98F1CC01C40CA
:102710003707FCFF7D17F98F1CC05C4041777D17A0
:10272000F98F5CC0B7079F001CC4E5211C4C93E7E0
:1027300007021CCCB717014003A707409386074048
:102740001377F7F023A0E74003A7074013670708B4
:1027500023A0E74089479CCAB7F7FF1F03C5477D01
:102760009307F00F6304F5007D896521B7270240C8
:102770009843C176FD16719B98C398431367170061
:1027800098C3B7170240D843D8C3D843758FD8C36E
:10279000D843B7060001D8C39843558F98C39843D0
:1027A00093166700E3DD06FED843B7160240719B1F
:1027B000D8C3D84313672700D8C32147DC42B18B65
:1027C000E39EE7FE6FD07F8EEFD29F8D37170240DA
:1027D0005C43370400209146B18B130404016385E8
:1027E000D700A1466382D704B7376E01938707608D
:1027F0001CC0B7160240DC420840918313F7F70073
:10280000B707002093870700BA978C23DC4293F523
:10281000F50F93F707083357B50081E7EFD09F8B8B
:102820002A8718C06FD07F885C43B777DC02938714
:1028300007C07DBF01A097E1FF1F93812100138195
:1028400081FC171500001305A50497D5FF1F93857C
:10285000657B17D6FF1F1306667E63FAC5008322C9
:10286000050023A0550011059105E3EAC5FE17D523
:10287000FF1F1305A57C938501DA6377B50023203C
:1028800005001105E36DB5FEB722000093820288B2
:10289000739002308D427390428097D2FFFF9382F3
:1028A000627693E2320073905230EFF0DFE39702EA
:1028B0000000938222B173901234730020301841CB
:1028C000E177BD0794517D8F9C45D58F9449D58F75
:1028D000D449D58F944DD58FD44DD58FD451D58F24
:1028E0009455D58FD98F1CC1DC455CC19C411CC55A
:1028F000DC415CC582805841032305004C45370606
:102900000140930706403E979346F3FFB1C58325E8
:102910000640F58D2320B640D043F18ED4C3144336
:10292000B3E6660014C3184190479346F7FF758ECF
:1029300090C7D047F18ED4C7144541466399C6006D
:102940009447D98E94C7D447558FD8C78280B697FD
:102950009443558F98C382801C43F58F1CC382809B
:10296000944593F7060193F2F60081C7DC41B3E288
:10297000F20083D3050093F7F30FA5C303230500EB
:10298000611122C226C0814713048002930480048F
:1029900005473316F70033F7C3006312E602939539
:1029A00027003D473317B7001347F7FF337367001E
:1029B000B395B20033E36500639D860050C9850777
:1029C0002147E397E7FC124423206500824421015C
:1029D0008280E39696FE10C9DDB7828008456D8D32
:1029E0003335A00082800CC982804CC982803707B1
:1029F0000140144786058D47B397B70093C7F7FF8B
:102A0000F58F1CC71C47B315B500DD8D0CC7828040
:102A1000EFD20FE9111146212A8428002EC0192473
:102A2000C246C204C18093F404FCB7450F009385ED
:102A300005243685C20436C2C180EFD0AFE9458D8A
:102A4000420541814AA01E209246C207C183F99BDC
:102A5000C207C1831EA082479043E1679387076A3C
:102A60009315160063E6C7043685EFD0AFE6AA8754
:102A70004205418191466373D50091471395070143
:102A800041814AAC1E20024793E717001EA01E207A
:102A900056233227C207C183D18E93F757BFD58FF4
:102AA0001EA016275E27D58F1EA471016FD0EFDF01
:102AB0008247EA23B167FD176310F502B2953685A8
:102AC000EFD04FE1420541819317450199E313652A
:102AD0001500A1675D8D75B7B387C5008E07B385F7
:102AE000C7003685EFD00FDF4205418191675D8DCC
:102AF000E1BF1E2189C593E717001EA18280C2078E
:102B0000C183F99BC207C183CDBF1E2189C593E74D
:102B100007101EA18280C207C18393F7F7EFC20797
:102B2000C183C5BF1E2189C593E707201EA18280EE
:102B3000C207C18393F7F7DFC207C183C5BF1E2158
:102B400089C593E707401EA18280C207C18393F71E
:102B5000F7BFC207C183C5BF0EA982800A291375BA
:102B6000F50F828093F7E50F19C293E71500C207AE
:102B7000C1831EA982805E290A2D42055D8D6D8D5F
:102B8000220521810D8D133515008280611102C04F
:102B900002C293D7C5012AC23EC08247A205A181C5
:102BA00099CB9247D1073EC29247884321016D8D50
:102BB0003335A00082809247C181E107EDB783A63B
:102BC00081D9854718216390F6021C31639CD70296
:102BD0003C219A0793E707F8B7E600E093F7F70F71
:102BE000BA962380F6408546935757003397E60000
:102BF000544189CE938707048A07B7E600E0B69769
:102C000098C38280EDF33C219A07F9B793870706B2
:102C1000E5B7371702401C430E0593F777F05D8D3B
:102C200008C38280EFD2CFC7371702405C4391467A
:102C30002A84B18B6385D700A1466380D708B73754
:102C40006E01938707601CC0B7160240DC42918377
:102C500013F7F700B707002093878702BA978C23F2
:102C6000DC42184093F5F50F93F707083355B7008A
:102C700081E73A85EFD00FC648C008C448C4B717EB
:102C80000240DC438D46AD83FD8B13D737008A07A6
:102C9000F18BD98F13F6370113F7370063F4C600B1
:102CA000138747FFB707002093874701BA978C2304
:102CB000EFD04FC208C86FD04FBF5C43B777DC027C
:102CC000938707C049B799C5371702405C4B5D8DA4
:102CD00048CB8280B7170240D84B1345F5FF798D5A
:102CE000C8CB828099C5371702401C4F5D8D08CF35
:102CF0008280B7170240984F1345F5FF798D88CF32
:102D0000828099C5371702405C4F5D8D48CF828025
:102D1000B7170240D84F1345F5FF798DC8CF828091
:102D20001A218D6793870704B6217D8F9E21D58F49
:102D3000D621D58FF621D58F9625D58FB625D58F5F
:102D4000D625D58FF625D58FD98F1EA19E291EA9F0
:102D500082801E2189C593E707041EA18280C207D5
:102D6000C18393F7F7FBC207C183C5BF5E2101C6CC
:102D7000DD8D4EA1828093C5F5FFFD8DDDBF1E2147
:102D800037370140130707C0C207C1836306E50058
:102D9000370700406316E500BA2193F7F7F8D98F9B
:102DA000FA2193F7F7CFC207C183D98F1EA1DE2185
:102DB0005EB59E211EB5B7370140938707C06314E7
:102DC000F5009C251EB985475EA982801A31FD77E2
:102DD000FD17F98F1EB1035305025A215E2DE576CA
:102DE0009386F6CFFD8E9E2113160701BA21A20706
:102DF000DD8EF977FD17B3F7670003D38500C206B0
:102E00004182336767003207D98F37370140C207E5
:102E1000130707C0C182C183631BE50071777D176B
:102E2000718FD2251A06518F131607014182FA219C
:102E300052A156AD38C11EB182808357450491C559
:102E40002167D98F2312F5048280C607C583DDBFB1
:102E50005E2501C6DD8D4EA5828093C5F5FFFD8DF3
:102E6000DDBF1E2189C593E707081EA18280C20726
:102E7000C18393F7F7F7C207C183C5BF5A2DFD770A
:102E80009387F77FF98FA205CD8FC207C1835EAD0F
:102E900082801E294A25ED8F4205418189C76D8DAB
:102EA0003335A00082800145828093C5F5FFC205BD
:102EB000C1810EA98280EFD2AF9EB707002003A583
:102EC0000701B7157A0093850520EFD0AFA01375E1
:102ED000F50F238FA1D893175500898F8A073E9548
:102EE0000E05239EA1D86FD04F9CEFD26F9B37F475
:102EF00000E05C40AA85F99B5CC003C5E1D9EFD036
:102F00006F9B08C8232404001C4093E717001CC0D3
:102F1000B7F700E0D843058B75DF9843799B98C3DA
:102F20006FD0AF98EFD2CF9737F400E05C40AA851E
:102F3000F99B5CC003D5C1D9EFD0CF9708C8232433
:102F400004001C4093E717001CC0B7F700E0D8430B
:102F5000058B75DF9843799B98C36FD00F95000060
:102F6000F00500004A060000380600004A0600008E
:102F70004A0600004A0600004A0600004A06000011
:102F80004A0600004A0600004A0600004A06000001
:102F90004A0600004A0600004A0600004A060000F1
:102FA0004A0600004A0600004A0600004A060000E1
:102FB0004A0600004A0600004A0600004A060000D1
:102FC0004A0600004A0600004A0600004A060000C1
:102FD0004A0600004A0600004A0600004A060000B1
:102FE0004A0600004A0600004A0600004A060000A1
:102FF0004A0600004A0600004A0600004A06000091
:103000004A0600004A0600004A0600004A06000080
:103010004A0600004A0600004A0600004A06000070
:103020004A0600004A0600004A0600004A06000060
:103030004A0600001A06000020060000EA0500000B
:103040000206000014060000FC050000A8050000B0
:10305000BA050000AE05000032060000CC050000F5
:10306000B405000008060000D80500002606000090
:10307000960500002C060000D2050000F6050000B1
:10308000A20500009C050000DE050000E40500002C
:10309000C6050000C00500000E0600007C1B0000F5
:1030A000821B00008C1B0000941B00009A1B000078
:1030B000A01B00006F00650000000000000067001A
:1030C00000000000000074000000610000007500B6
:1030D000000000006B0078000000000000006200AB
:1030E000000000000000760000007A0000006D0083
:1030F00000000000000000000000000000000000D0
:1031000000000000000000000000000000000000BF
:1031100000000000000063000000000000006E00DE
:10312000000000000000000000000000000000009F
:1031300000000000000000000000710000007900A5
:103140000000000070007200000077000000000026
:10315000000000006900640000000000000068003A
:10316000000000006C0066000000730000006A00B0
:1031700000081414143008040410000000000000BB
:103180001C081C3E043E0E3E1C1C00000400101CCB
:103190001C083C1C3C3E3E1C221C02222022221CFD
:1031A0003C1C3C1C3E22222222223E38000E1C00E7
:1031B0000800200002000C00200804201800000075
:1031C00000000000100000000000000408081A00C1
:1031D000000FF0FF000FF0FF000FF0FF000FF0FFF7
:1031E000000018181818001800001818180018AA5D
:1031F000000814141E321404080808080000000215
:10320000221822020C2010022222000008000822AC
:1032100022142222122020202208022420362222D8
:1032200022222222082222222222022020022200FE
:10323000080020000200121E2000002008000000EC
:1032400000000000100000000000000808042C002E
:10325000000FF0FF000FF0FF000FF0FF000FF0FF76
:10326000000018181818001800000C301800185525
:103270000008143E2004140810042A08000000046A
:1032800026080204143C200422220010103E0402EE
:10329000022222201220202022080228202A322264
:1032A00022222220082222221414042010020000CC
:1032B000081C2C1C1A1C10222C180C2408342C1C42
:1032C0003C1A2C1C3822222222223E08080400002C
:1032D000000FF0FF000FF0FF000FF0FF000FF0FFF6
:1032E000000018181818001800000660180018AA26
:1032F000000800141C08180010041C3E003E0008C2
:103300002A080C0C24023C081C1E000020000204A9
:103310001A223C20123C3C203E080230202A2A225D
:103320003C223C1C0822142A08080820080200003D
:10333000000232202622382232080428082A3222AB
:103340002226322010222222142204100802000019
:10335000000FF0FF000FF0FF000FF0FF000FF0FF75
:103360001FF81FF81FF8FFFF018003C018FFFF556B
:103370000008003E02102A0010042A081000001065
:10338000320810023E02221022021010103E0408E1
:103390002A3E22201220202622082228202226220D
:1033A000202A28020822142A1408102004020000EF
:1033B000001E2220223E101E22080430082A22224B
:1033C0003C1E201C1022222A081E080808040000A7
:1033D00000000000F0F0F0F00F0F0F0FFFFFFFFFF5
:1033E0001FF81FF81FF8FFFF03C0018018FFFFAA96
:1033F000000000143C2624000808080810000020E3
:1034000022082022042222102204001008000800B2
:103410002A222222122020222208222420222222B2
:10342000202424220822082A220820200202000048
:1034300000222222222010022208242808222222EE
:10344000200220021226142A140210080804000088
:1034500000000000F0F0F0F00F0F0F0FFFFFFFFF74
:1034600018180000181818000660000018001855F9
:103470000008001414061A000410000020001000B8
:103480001C1C3E1C041C1C101C38102004001008BE
:103490001C223C1C3C3E201E221C1C223E22221CC4
:1034A000201A221C081C081422083E38000E003E78
:1034B000001E3C1C1E1C101C221C18241C22221C3A
:1034C0002002203C0C1A0814221C3E0408080000AC
:1034D00000000000F0F0F0F00F0F0F0FFFFFFFFFF4
:1034E00018180000181818000C300000180018AA4E
:1034F00000000000000000000000000000000000CC
:1035000000000000000000000000000000000000BB
:1035100000000000000000000000000000000000AB
:10352000000000000000000000000000000000009B
:10353000000000000000000000000000000000008B
:10354000000000000000000000000000000000007B
:10355000FF000000F0F0F0F00F0F0F0FFFFFFFFF74
:10356000181800001818180018180000180018552E
:10357000065052494E5420000349462000000000E6
:10358000055448454E20000005474F544F20000089
:1035900006494E5055542000044C4554200000006C
:1035A00006474F53554220000752455455524E206E
:1035B00006434C4541522000054C4953542000001D
:1035C0000452554E2000000004454E4420000000E7
:1035D0000554494D4520000007435552534F522092
:1035E00006505554434820000647455443482000A0
:1035F00006494E4B455920000546494C45200000E0
:10360000054449534B2000000644454C41592000D5
:1036100005424545502000000452454D2000000061
:103620000541494E502000000544494E50200000FD
:1036300005444F55542000000549324357200000EF
:10364000054932435220000005434F5059200000E5
:10365000507265737320616E79206B65792E2E2E02
:10366000000000004572726F722076616C756521F2
:10367000000000004D697373696E67203D00000013
:103680004D697373696E67207661726961626C65FA
:10369000210000004C696E65206E756D62657220B8
:1036A0004F565221000000004E6F207265747572F3
:1036B0006E210000496E7365727420003A000000AC
:1036C0004E6F205448454E004F70657261746F72A2
:1036D000206572726F7200004E6F20322E20657866
:1036E000707200004E6F20312E20657870720000DD
:1036F00045727220706F7369742100004D69737395
:10370000696E67202C0000004D697373696E672035
:1037100076616C756521000045727220706172617E
:103720006D2100004572726F722054696D65210031
:103730004572726F72204672657121004F76657214
:103740002072616E676521004572726F7220436F4F
:10375000756E7421000000004572726F7220546112
:1037600072676574210000004572726F7220536F9A
:1037700075726365210000004E6F20662044495336
:103780004B2100000A436F707920746F20646973C5
:103790006B2000004E6F2066696C65206E756D624F
:1037A000657221004572726F7220706172616D6581
:1037B000746572004572726F7220496E7075742163
:1037C000000000004572726F72207661726961625A
:1037D0006C6521004572726F72204F75747075743C
:1037E000210000006E6F207375636820636F6D6D3C
:1037F000616E6421000000005A65726F2064697672
:10380000210000004D697373696E67206F706572E7
:10381000616E6421000000004F7574206F662061A6
:103820007272617921000000496E646578206572CA
:10383000726F72210000000054696E7942617369F1
:103840006320312E300000004E6F204449534B203E
:10385000662C20004E6F20504346383537352C20DB
:1038600000000000496E74204F53430020202020A8
:10387000000000004572726F72206C696E65206EE8
:0C388000756D6265722100000A4F4B005C
:10388C0001020304050607080102030405060708E4
:10389C00006CDC020204060804080C100810182046
:1038AC001020304020406080010203040506070808
:0838BC000102030405060708E0
:00000001FF
